{
  "contractName": "DMMS",
  "abi": [
    {
      "anonymous": false,
      "inputs": [
        {
          "indexed": false,
          "internalType": "uint256",
          "name": "treatmentId",
          "type": "uint256"
        }
      ],
      "name": "TreatmentCompleted",
      "type": "event"
    },
    {
      "inputs": [
        {
          "internalType": "address",
          "name": "",
          "type": "address"
        }
      ],
      "name": "addressToDoctor",
      "outputs": [
        {
          "internalType": "bool",
          "name": "",
          "type": "bool"
        }
      ],
      "stateMutability": "view",
      "type": "function",
      "constant": true
    },
    {
      "inputs": [
        {
          "internalType": "uint256",
          "name": "_id",
          "type": "uint256"
        },
        {
          "internalType": "string",
          "name": "_name",
          "type": "string"
        },
        {
          "internalType": "string",
          "name": "_addres",
          "type": "string"
        },
        {
          "internalType": "uint256",
          "name": "_phoneNo",
          "type": "uint256"
        },
        {
          "internalType": "string",
          "name": "_bloodGroup",
          "type": "string"
        },
        {
          "internalType": "uint256",
          "name": "_emergencyContact",
          "type": "uint256"
        }
      ],
      "name": "addPatientInfo",
      "outputs": [],
      "stateMutability": "nonpayable",
      "type": "function"
    },
    {
      "inputs": [
        {
          "internalType": "uint256",
          "name": "id",
          "type": "uint256"
        }
      ],
      "name": "getPatientInfo",
      "outputs": [
        {
          "internalType": "string",
          "name": "",
          "type": "string"
        },
        {
          "internalType": "string",
          "name": "",
          "type": "string"
        },
        {
          "internalType": "uint256",
          "name": "",
          "type": "uint256"
        },
        {
          "internalType": "string",
          "name": "",
          "type": "string"
        },
        {
          "internalType": "uint256",
          "name": "",
          "type": "uint256"
        }
      ],
      "stateMutability": "view",
      "type": "function",
      "constant": true
    },
    {
      "inputs": [],
      "name": "createTreatmentID",
      "outputs": [
        {
          "internalType": "uint256",
          "name": "",
          "type": "uint256"
        }
      ],
      "stateMutability": "nonpayable",
      "type": "function"
    },
    {
      "inputs": [
        {
          "internalType": "uint256",
          "name": "patient_id",
          "type": "uint256"
        },
        {
          "internalType": "uint256",
          "name": "doctor_id",
          "type": "uint256"
        },
        {
          "internalType": "string",
          "name": "diagnosis",
          "type": "string"
        },
        {
          "internalType": "string[]",
          "name": "medicines",
          "type": "string[]"
        },
        {
          "internalType": "string[]",
          "name": "medicineBrands",
          "type": "string[]"
        },
        {
          "internalType": "uint256[]",
          "name": "dosages",
          "type": "uint256[]"
        },
        {
          "internalType": "string[]",
          "name": "medicineAdministrations",
          "type": "string[]"
        },
        {
          "internalType": "string",
          "name": "doctorNotes",
          "type": "string"
        },
        {
          "internalType": "string",
          "name": "med_duration",
          "type": "string"
        }
      ],
      "name": "TreatPatient",
      "outputs": [
        {
          "internalType": "uint256",
          "name": "",
          "type": "uint256"
        }
      ],
      "stateMutability": "nonpayable",
      "type": "function"
    },
    {
      "inputs": [
        {
          "internalType": "uint256",
          "name": "_tid",
          "type": "uint256"
        }
      ],
      "name": "getTreatmentDetails",
      "outputs": [
        {
          "internalType": "uint256",
          "name": "timestamp",
          "type": "uint256"
        },
        {
          "internalType": "uint256",
          "name": "p_id",
          "type": "uint256"
        },
        {
          "internalType": "string",
          "name": "p_name",
          "type": "string"
        },
        {
          "internalType": "uint256",
          "name": "d_id",
          "type": "uint256"
        },
        {
          "internalType": "string",
          "name": "d_name",
          "type": "string"
        },
        {
          "internalType": "string",
          "name": "diagnosis",
          "type": "string"
        },
        {
          "internalType": "string[]",
          "name": "medicines",
          "type": "string[]"
        },
        {
          "internalType": "string[]",
          "name": "medicineBrands",
          "type": "string[]"
        },
        {
          "internalType": "uint256[]",
          "name": "dosages",
          "type": "uint256[]"
        },
        {
          "internalType": "string[]",
          "name": "medicineAdministrations",
          "type": "string[]"
        },
        {
          "internalType": "string",
          "name": "doctorNotes",
          "type": "string"
        },
        {
          "internalType": "string",
          "name": "med_duration",
          "type": "string"
        }
      ],
      "stateMutability": "view",
      "type": "function",
      "constant": true
    },
    {
      "inputs": [
        {
          "internalType": "uint256",
          "name": "patient_id",
          "type": "uint256"
        }
      ],
      "name": "getPatientTreatments",
      "outputs": [
        {
          "components": [
            {
              "internalType": "uint256",
              "name": "patient_id",
              "type": "uint256"
            },
            {
              "internalType": "uint256",
              "name": "doctor_id",
              "type": "uint256"
            },
            {
              "internalType": "string",
              "name": "diagnosis",
              "type": "string"
            },
            {
              "internalType": "string[]",
              "name": "medicines",
              "type": "string[]"
            },
            {
              "internalType": "string[]",
              "name": "medicineBrands",
              "type": "string[]"
            },
            {
              "internalType": "uint256[]",
              "name": "dosages",
              "type": "uint256[]"
            },
            {
              "internalType": "string[]",
              "name": "medicineAdministrations",
              "type": "string[]"
            },
            {
              "internalType": "string",
              "name": "doctorNotes",
              "type": "string"
            },
            {
              "internalType": "string",
              "name": "med_duration",
              "type": "string"
            },
            {
              "internalType": "uint256",
              "name": "timestamp",
              "type": "uint256"
            }
          ],
          "internalType": "struct DMMS.treatment[]",
          "name": "",
          "type": "tuple[]"
        }
      ],
      "stateMutability": "view",
      "type": "function",
      "constant": true
    },
    {
      "inputs": [
        {
          "internalType": "uint256",
          "name": "patient_id",
          "type": "uint256"
        },
        {
          "internalType": "uint256",
          "name": "treatment_id",
          "type": "uint256"
        }
      ],
      "name": "treatmentExists",
      "outputs": [
        {
          "internalType": "bool",
          "name": "",
          "type": "bool"
        }
      ],
      "stateMutability": "view",
      "type": "function",
      "constant": true
    },
    {
      "inputs": [
        {
          "internalType": "uint256",
          "name": "patient_id",
          "type": "uint256"
        }
      ],
      "name": "patientExists",
      "outputs": [
        {
          "internalType": "bool",
          "name": "",
          "type": "bool"
        }
      ],
      "stateMutability": "view",
      "type": "function",
      "constant": true
    },
    {
      "inputs": [
        {
          "internalType": "address",
          "name": "sender",
          "type": "address"
        }
      ],
      "name": "isDoctor",
      "outputs": [
        {
          "internalType": "bool",
          "name": "",
          "type": "bool"
        }
      ],
      "stateMutability": "view",
      "type": "function",
      "constant": true
    },
    {
      "inputs": [
        {
          "internalType": "uint256",
          "name": "doc_id",
          "type": "uint256"
        },
        {
          "internalType": "string",
          "name": "name",
          "type": "string"
        },
        {
          "internalType": "string",
          "name": "practice_type",
          "type": "string"
        },
        {
          "internalType": "string",
          "name": "area_of_expertise",
          "type": "string"
        },
        {
          "internalType": "uint256",
          "name": "phone_no",
          "type": "uint256"
        },
        {
          "internalType": "string",
          "name": "clinicAddress",
          "type": "string"
        }
      ],
      "name": "addDoctor",
      "outputs": [],
      "stateMutability": "nonpayable",
      "type": "function"
    },
    {
      "inputs": [
        {
          "internalType": "uint256",
          "name": "_d_id",
          "type": "uint256"
        }
      ],
      "name": "getDoctorDetails",
      "outputs": [
        {
          "internalType": "uint256",
          "name": "",
          "type": "uint256"
        },
        {
          "internalType": "string",
          "name": "",
          "type": "string"
        },
        {
          "internalType": "string",
          "name": "",
          "type": "string"
        },
        {
          "internalType": "string",
          "name": "",
          "type": "string"
        },
        {
          "internalType": "uint256",
          "name": "",
          "type": "uint256"
        },
        {
          "internalType": "string",
          "name": "",
          "type": "string"
        }
      ],
      "stateMutability": "view",
      "type": "function",
      "constant": true
    },
    {
      "inputs": [
        {
          "internalType": "uint256",
          "name": "treatment_id",
          "type": "uint256"
        },
        {
          "internalType": "string[]",
          "name": "medicines",
          "type": "string[]"
        },
        {
          "internalType": "string[]",
          "name": "medicineBrands",
          "type": "string[]"
        },
        {
          "internalType": "uint256[]",
          "name": "dosages",
          "type": "uint256[]"
        },
        {
          "internalType": "string[]",
          "name": "medicineAdministrations",
          "type": "string[]"
        },
        {
          "internalType": "string",
          "name": "duration",
          "type": "string"
        },
        {
          "internalType": "string",
          "name": "doctorNotes",
          "type": "string"
        }
      ],
      "name": "modifyPrescription",
      "outputs": [],
      "stateMutability": "nonpayable",
      "type": "function"
    },
    {
      "inputs": [
        {
          "internalType": "string[]",
          "name": "medicines",
          "type": "string[]"
        },
        {
          "internalType": "string[]",
          "name": "newMedicines",
          "type": "string[]"
        }
      ],
      "name": "checkInteractions",
      "outputs": [
        {
          "internalType": "bool",
          "name": "",
          "type": "bool"
        }
      ],
      "stateMutability": "nonpayable",
      "type": "function"
    }
  ],
  "bytecode": "0x60806040526000600b5534801561001557600080fd5b50614db3806100256000396000f3fe608060405234801561001057600080fd5b50600436106100ea5760003560e01c806358179a901161008c5780636c5a0ab2116100665780636c5a0ab214610298578063828927c4146102d3578063996440c614610307578063efbb19f114610337576100ea565b806358179a901461021c57806360b710f11461024c57806364ffe3a71461027c576100ea565b80632a239456116100c85780632a2394561461016b57806335eca5b0146101875780633b6d5b8c146101b757806343f7ca29146101ec576100ea565b80630ec785a4146100ef57806311bfa56f1461011f5780632071ee3c1461013b575b600080fd5b61010960048036038101906101049190612fc6565b610355565b604051610116919061300e565b60405180910390f35b6101396004803603810190610134919061334e565b610375565b005b61015560048036038101906101509190613498565b6105ca565b604051610162919061300e565b60405180910390f35b610185600480360381019061018091906134c5565b6105ec565b005b6101a1600480360381019061019c91906135c2565b6108d5565b6040516101ae919061375f565b60405180910390f35b6101d160048036038101906101cc9190613498565b611170565b6040516101e3969594939291906137f9565b60405180910390f35b61020660048036038101906102019190613876565b611539565b604051610213919061300e565b60405180910390f35b61023660048036038101906102319190613498565b611a46565b6040516102439190613c7e565b60405180910390f35b61026660048036038101906102619190613ca0565b611fff565b604051610273919061300e565b60405180910390f35b61029660048036038101906102919190613ce0565b612078565b005b6102b260048036038101906102ad9190613498565b6122de565b6040516102ca9c9b9a99989796959493929190613eb6565b60405180910390f35b6102ed60048036038101906102e89190613498565b612965565b6040516102fe959493929190613faf565b60405180910390f35b610321600480360381019061031c9190612fc6565b612c5b565b60405161032e919061300e565b60405180910390f35b61033f612cbd565b60405161034c919061375f565b60405180910390f35b60066020528060005260406000206000915054906101000a900460ff1681565b61037e33612c5b565b6103bd576040517f08c379a00000000000000000000000000000000000000000000000000000000081526004016103b490614089565b60405180910390fd5b6000600960008981526020019081526020016000209050600081600001540361041b576040517f08c379a0000000000000000000000000000000000000000000000000000000008152600401610412906140f5565b60405180910390fd5b6104f881600301805480602002602001604051908101604052809291908181526020016000905b828210156104ee57838290600052602060002001805461046190614144565b80601f016020809104026020016040519081016040528092919081815260200182805461048d90614144565b80156104da5780601f106104af576101008083540402835291602001916104da565b820191906000526020600020905b8154815290600101906020018083116104bd57829003601f168201915b505050505081526020019060010190610442565b5050505088611539565b15610538576040517f08c379a000000000000000000000000000000000000000000000000000000000815260040161052f906141e7565b60405180910390fd5b86816003019080519060200190610550929190612d28565b5085816004019080519060200190610569929190612d28565b5084816005019080519060200190610582929190612d81565b508381600601908051906020019061059b929190612d28565b50828160080190816105ad91906143b3565b50818160070190816105bf91906143b3565b505050505050505050565b6000806001600084815260200190815260200160002060060154119050919050565b600080600088815260200190815260200160002054148061064c57506000600260003373ffffffffffffffffffffffffffffffffffffffff1673ffffffffffffffffffffffffffffffffffffffff16815260200190815260200160002054145b61068b576040517f08c379a0000000000000000000000000000000000000000000000000000000008152600401610682906144f7565b60405180910390fd5b600660003373ffffffffffffffffffffffffffffffffffffffff1673ffffffffffffffffffffffffffffffffffffffff16815260200190815260200160002060009054906101000a900460ff1615610718576040517f08c379a000000000000000000000000000000000000000000000000000000000815260040161070f90614589565b60405180910390fd5b6040518060c00160405280878152602001868152602001858152602001848152602001838152602001828152506005600088815260200190815260200160002060008201518160000155602082015181600101908161077791906143b3565b50604082015181600201908161078d91906143b3565b5060608201518160030190816107a391906143b3565b506080820151816004015560a08201518160050190816107c391906143b3565b5090505060026000808881526020019081526020016000208190555085600260003373ffffffffffffffffffffffffffffffffffffffff1673ffffffffffffffffffffffffffffffffffffffff16815260200190815260200160002081905550336003600088815260200190815260200160002060006101000a81548173ffffffffffffffffffffffffffffffffffffffff021916908373ffffffffffffffffffffffffffffffffffffffff1602179055506001600660003373ffffffffffffffffffffffffffffffffffffffff1673ffffffffffffffffffffffffffffffffffffffff16815260200190815260200160002060006101000a81548160ff021916908315150217905550505050505050565b600080600260003373ffffffffffffffffffffffffffffffffffffffff1673ffffffffffffffffffffffffffffffffffffffff16815260200190815260200160002054905060016000808d815260200190815260200160002054148061094d5750600260008083815260200190815260200160002054145b61095657600080fd5b6000600160008d8152602001908152602001600020600601541115610ef8576000600160008d815260200190815260200160002060050160018060008f8152602001908152602001600020600601546109af91906145d8565b815481106109c0576109bf61460c565b5b90600052602060002001549050600060096000838152602001908152602001600020604051806101400160405290816000820154815260200160018201548152602001600282018054610a1290614144565b80601f0160208091040260200160405190810160405280929190818152602001828054610a3e90614144565b8015610a8b5780601f10610a6057610100808354040283529160200191610a8b565b820191906000526020600020905b815481529060010190602001808311610a6e57829003601f168201915b5050505050815260200160038201805480602002602001604051908101604052809291908181526020016000905b82821015610b65578382906000526020600020018054610ad890614144565b80601f0160208091040260200160405190810160405280929190818152602001828054610b0490614144565b8015610b515780601f10610b2657610100808354040283529160200191610b51565b820191906000526020600020905b815481529060010190602001808311610b3457829003601f168201915b505050505081526020019060010190610ab9565b50505050815260200160048201805480602002602001604051908101604052809291908181526020016000905b82821015610c3e578382906000526020600020018054610bb190614144565b80601f0160208091040260200160405190810160405280929190818152602001828054610bdd90614144565b8015610c2a5780601f10610bff57610100808354040283529160200191610c2a565b820191906000526020600020905b815481529060010190602001808311610c0d57829003601f168201915b505050505081526020019060010190610b92565b50505050815260200160058201805480602002602001604051908101604052809291908181526020018280548015610c9557602002820191906000526020600020905b815481526020019060010190808311610c81575b5050505050815260200160068201805480602002602001604051908101604052809291908181526020016000905b82821015610d6f578382906000526020600020018054610ce290614144565b80601f0160208091040260200160405190810160405280929190818152602001828054610d0e90614144565b8015610d5b5780601f10610d3057610100808354040283529160200191610d5b565b820191906000526020600020905b815481529060010190602001808311610d3e57829003601f168201915b505050505081526020019060010190610cc3565b505050508152602001600782018054610d8790614144565b80601f0160208091040260200160405190810160405280929190818152602001828054610db390614144565b8015610e005780601f10610dd557610100808354040283529160200191610e00565b820191906000526020600020905b815481529060010190602001808311610de357829003601f168201915b50505050508152602001600882018054610e1990614144565b80601f0160208091040260200160405190810160405280929190818152602001828054610e4590614144565b8015610e925780601f10610e6757610100808354040283529160200191610e92565b820191906000526020600020905b815481529060010190602001808311610e7557829003601f168201915b505050505081526020016009820154815250509050610eb581606001518b611539565b15610ef5576040517f08c379a0000000000000000000000000000000000000000000000000000000008152600401610eec906146ad565b60405180910390fd5b50505b6000610f02612cbd565b905060006040518061014001604052808e81526020018d81526020018c81526020018b81526020018a8152602001898152602001888152602001878152602001868152602001428152509050806009600084815260200190815260200160002060008201518160000155602082015181600101556040820151816002019081610f8b91906143b3565b506060820151816003019080519060200190610fa8929190612d28565b506080820151816004019080519060200190610fc5929190612d28565b5060a0820151816005019080519060200190610fe2929190612d81565b5060c0820151816006019080519060200190610fff929190612d28565b5060e082015181600701908161101591906143b3565b5061010082015181600801908161102c91906143b3565b506101208201518160090155905050600160008e8152602001908152602001600020600501829080600181540180825580915050600190039060005260206000200160009091909190915055600160008e8152602001908152602001600020600601600081548092919061109f906146cd565b9190505550600a60008e81526020019081526020016000208290806001815401808255809150506001900390600052602060002001600090919091909150556110e733612c5b565b611126576040517f08c379a000000000000000000000000000000000000000000000000000000000815260040161111d90614761565b60405180910390fd5b7f4b2dc3d0b5e528662935cc1eb65e3867ccf9e97554c2e84e82e0f0f141efa05682604051611155919061375f565b60405180910390a18193505050509998505050505050505050565b6000606080606060006060600260008089815260200190815260200160002054146111d0576040517f08c379a00000000000000000000000000000000000000000000000000000000081526004016111c7906147cd565b60405180910390fd5b6000600260003373ffffffffffffffffffffffffffffffffffffffff1673ffffffffffffffffffffffffffffffffffffffff16815260200190815260200160002054905060026000808381526020019081526020016000205414806112475750600160008083815260200190815260200160002054145b611286576040517f08c379a000000000000000000000000000000000000000000000000000000000815260040161127d90614839565b60405180910390fd5b6000600560008a81526020019081526020016000206040518060c0016040529081600082015481526020016001820180546112c090614144565b80601f01602080910402602001604051908101604052809291908181526020018280546112ec90614144565b80156113395780601f1061130e57610100808354040283529160200191611339565b820191906000526020600020905b81548152906001019060200180831161131c57829003601f168201915b5050505050815260200160028201805461135290614144565b80601f016020809104026020016040519081016040528092919081815260200182805461137e90614144565b80156113cb5780601f106113a0576101008083540402835291602001916113cb565b820191906000526020600020905b8154815290600101906020018083116113ae57829003601f168201915b505050505081526020016003820180546113e490614144565b80601f016020809104026020016040519081016040528092919081815260200182805461141090614144565b801561145d5780601f106114325761010080835404028352916020019161145d565b820191906000526020600020905b81548152906001019060200180831161144057829003601f168201915b505050505081526020016004820154815260200160058201805461148090614144565b80601f01602080910402602001604051908101604052809291908181526020018280546114ac90614144565b80156114f95780601f106114ce576101008083540402835291602001916114f9565b820191906000526020600020905b8154815290600101906020018083116114dc57829003601f168201915b5050505050815250509050806000015181602001518260400151836060015184608001518560a00151975097509750975097509750505091939550919395565b600060405180602001604052806040518060400160405280600881526020017f576172666172696e000000000000000000000000000000000000000000000000815250815250600760405161158d906148b0565b90815260200160405180910390209060016115a9929190612dce565b5060405180602001604052806040518060400160405280600881526020017f576172666172696e00000000000000000000000000000000000000000000000081525081525060076040516115fc90614911565b9081526020016040518091039020906001611618929190612dce565b5060405180604001604052806040518060400160405280600981526020017f49627570726f66656e000000000000000000000000000000000000000000000081525081526020016040518060400160405280600781526020017f4173706972696e0000000000000000000000000000000000000000000000000081525081525060076040516116a690614972565b90815260200160405180910390209060026116c2929190612e27565b5060405180604001604052806040518060400160405280600781526020017f50616e61646f6c0000000000000000000000000000000000000000000000000081525081526020016040518060400160405280600781526020017f4173706972696e000000000000000000000000000000000000000000000000008152508152506007604051611750906149d3565b908152602001604051809103902090600261176c929190612e27565b5060405180604001604052806040518060400160405280600781526020017f50616e61646f6c0000000000000000000000000000000000000000000000000081525081526020016040518060400160405280600981526020017f49627570726f66656e000000000000000000000000000000000000000000000081525081525060076040516117fa90614a34565b9081526020016040518091039020906002611816929190612e27565b5060405180602001604052806040518060400160405280600b81526020017f466c75636f6e617a6f6c65000000000000000000000000000000000000000000815250815250600760405161186990614a95565b9081526020016040518091039020906001611885929190612dce565b5060405180602001604052806040518060400160405280600b81526020017f53696d766173746174696e00000000000000000000000000000000000000000081525081525060076040516118d890614af6565b90815260200160405180910390209060016118f4929190612dce565b5060005b8351811015611a3b5760008482815181106119165761191561460c565b5b6020026020010151905060005b8451811015611a265760008582815181106119415761194061460c565b5b602002602001015190508060405160200161195c9190614b3c565b604051602081830303815290604052805190602001206007846040516119829190614b3c565b908152602001604051809103902083815481106119a2576119a161460c565b5b906000526020600020016040516020016119bc9190614bd6565b6040516020818303038152906040528051906020012003611a12576040517f08c379a0000000000000000000000000000000000000000000000000000000008152600401611a0990614c5f565b60405180910390fd5b508080611a1e906146cd565b915050611923565b50508080611a33906146cd565b9150506118f8565b506000905092915050565b60606000600a600084815260200190815260200160002090506000818054905067ffffffffffffffff811115611a7f57611a7e613075565b5b604051908082528060200260200182016040528015611ab857816020015b611aa5612e80565b815260200190600190039081611a9d5790505b50905060005b8280549050811015611ff4576000838281548110611adf57611ade61460c565b5b9060005260206000200154905060096000828152602001908152602001600020604051806101400160405290816000820154815260200160018201548152602001600282018054611b2f90614144565b80601f0160208091040260200160405190810160405280929190818152602001828054611b5b90614144565b8015611ba85780601f10611b7d57610100808354040283529160200191611ba8565b820191906000526020600020905b815481529060010190602001808311611b8b57829003601f168201915b5050505050815260200160038201805480602002602001604051908101604052809291908181526020016000905b82821015611c82578382906000526020600020018054611bf590614144565b80601f0160208091040260200160405190810160405280929190818152602001828054611c2190614144565b8015611c6e5780601f10611c4357610100808354040283529160200191611c6e565b820191906000526020600020905b815481529060010190602001808311611c5157829003601f168201915b505050505081526020019060010190611bd6565b50505050815260200160048201805480602002602001604051908101604052809291908181526020016000905b82821015611d5b578382906000526020600020018054611cce90614144565b80601f0160208091040260200160405190810160405280929190818152602001828054611cfa90614144565b8015611d475780601f10611d1c57610100808354040283529160200191611d47565b820191906000526020600020905b815481529060010190602001808311611d2a57829003601f168201915b505050505081526020019060010190611caf565b50505050815260200160058201805480602002602001604051908101604052809291908181526020018280548015611db257602002820191906000526020600020905b815481526020019060010190808311611d9e575b5050505050815260200160068201805480602002602001604051908101604052809291908181526020016000905b82821015611e8c578382906000526020600020018054611dff90614144565b80601f0160208091040260200160405190810160405280929190818152602001828054611e2b90614144565b8015611e785780601f10611e4d57610100808354040283529160200191611e78565b820191906000526020600020905b815481529060010190602001808311611e5b57829003601f168201915b505050505081526020019060010190611de0565b505050508152602001600782018054611ea490614144565b80601f0160208091040260200160405190810160405280929190818152602001828054611ed090614144565b8015611f1d5780601f10611ef257610100808354040283529160200191611f1d565b820191906000526020600020905b815481529060010190602001808311611f0057829003601f168201915b50505050508152602001600882018054611f3690614144565b80601f0160208091040260200160405190810160405280929190818152602001828054611f6290614144565b8015611faf5780601f10611f8457610100808354040283529160200191611faf565b820191906000526020600020905b815481529060010190602001808311611f9257829003601f168201915b50505050508152602001600982015481525050838381518110611fd557611fd461460c565b5b6020026020010181905250508080611fec906146cd565b915050611abe565b508092505050919050565b60008060016000858152602001908152602001600020600501905060005b818054905081101561206b578382828154811061203d5761203c61460c565b5b90600052602060002001540361205857600192505050612072565b8080612063906146cd565b91505061201d565b5060009150505b92915050565b6000806000888152602001908152602001600020541480156120d957506000600260003373ffffffffffffffffffffffffffffffffffffffff1673ffffffffffffffffffffffffffffffffffffffff16815260200190815260200160002054145b612118576040517f08c379a000000000000000000000000000000000000000000000000000000000815260040161210f906144f7565b60405180910390fd5b6040518060e00160405280868152602001858152602001848152602001838152602001828152602001600067ffffffffffffffff81111561215c5761215b613075565b5b60405190808252806020026020018201604052801561218a5781602001602082028036833780820191505090505b50815260200160008152506001600088815260200190815260200160002060008201518160000190816121bd91906143b3565b5060208201518160010190816121d391906143b3565b506040820151816002015560608201518160030190816121f391906143b3565b506080820151816004015560a082015181600501908051906020019061221a929190612d81565b5060c0820151816006015590505060016000808881526020019081526020016000208190555085600260003373ffffffffffffffffffffffffffffffffffffffff1673ffffffffffffffffffffffffffffffffffffffff16815260200190815260200160002081905550336003600088815260200190815260200160002060006101000a81548173ffffffffffffffffffffffffffffffffffffffff021916908373ffffffffffffffffffffffffffffffffffffffff160217905550505050505050565b600080606060006060806060806060806060806000600960008f815260200190815260200160002060405180610140016040529081600082015481526020016001820154815260200160028201805461233690614144565b80601f016020809104026020016040519081016040528092919081815260200182805461236290614144565b80156123af5780601f10612384576101008083540402835291602001916123af565b820191906000526020600020905b81548152906001019060200180831161239257829003601f168201915b5050505050815260200160038201805480602002602001604051908101604052809291908181526020016000905b828210156124895783829060005260206000200180546123fc90614144565b80601f016020809104026020016040519081016040528092919081815260200182805461242890614144565b80156124755780601f1061244a57610100808354040283529160200191612475565b820191906000526020600020905b81548152906001019060200180831161245857829003601f168201915b5050505050815260200190600101906123dd565b50505050815260200160048201805480602002602001604051908101604052809291908181526020016000905b828210156125625783829060005260206000200180546124d590614144565b80601f016020809104026020016040519081016040528092919081815260200182805461250190614144565b801561254e5780601f106125235761010080835404028352916020019161254e565b820191906000526020600020905b81548152906001019060200180831161253157829003601f168201915b5050505050815260200190600101906124b6565b505050508152602001600582018054806020026020016040519081016040528092919081815260200182805480156125b957602002820191906000526020600020905b8154815260200190600101908083116125a5575b5050505050815260200160068201805480602002602001604051908101604052809291908181526020016000905b8282101561269357838290600052602060002001805461260690614144565b80601f016020809104026020016040519081016040528092919081815260200182805461263290614144565b801561267f5780601f106126545761010080835404028352916020019161267f565b820191906000526020600020905b81548152906001019060200180831161266257829003601f168201915b5050505050815260200190600101906125e7565b5050505081526020016007820180546126ab90614144565b80601f01602080910402602001604051908101604052809291908181526020018280546126d790614144565b80156127245780601f106126f957610100808354040283529160200191612724565b820191906000526020600020905b81548152906001019060200180831161270757829003601f168201915b5050505050815260200160088201805461273d90614144565b80601f016020809104026020016040519081016040528092919081815260200182805461276990614144565b80156127b65780601f1061278b576101008083540402835291602001916127b6565b820191906000526020600020905b81548152906001019060200180831161279957829003601f168201915b50505050508152602001600982015481525050905080600001519b5080602001519950600160008d815260200190815260200160002060000180546127fa90614144565b80601f016020809104026020016040519081016040528092919081815260200182805461282690614144565b80156128735780601f1061284857610100808354040283529160200191612873565b820191906000526020600020905b81548152906001019060200180831161285657829003601f168201915b50505050509a50600560008b8152602001908152602001600020600101805461289b90614144565b80601f01602080910402602001604051908101604052809291908181526020018280546128c790614144565b80156129145780601f106128e957610100808354040283529160200191612914565b820191906000526020600020905b8154815290600101906020018083116128f757829003601f168201915b505050505098508060400151975080606001519650806080015195508060a0015194508060c0015193508060e00151925080610100015191508061012001519c505091939597999b5091939597999b565b60608060006060600060016000808881526020019081526020016000205414806129a15750600260008088815260200190815260200160002054145b6129e0576040517f08c379a00000000000000000000000000000000000000000000000000000000081526004016129d790614ccb565b60405180910390fd5b6000600160008881526020019081526020016000206040518060e0016040529081600082018054612a1090614144565b80601f0160208091040260200160405190810160405280929190818152602001828054612a3c90614144565b8015612a895780601f10612a5e57610100808354040283529160200191612a89565b820191906000526020600020905b815481529060010190602001808311612a6c57829003601f168201915b50505050508152602001600182018054612aa290614144565b80601f0160208091040260200160405190810160405280929190818152602001828054612ace90614144565b8015612b1b5780601f10612af057610100808354040283529160200191612b1b565b820191906000526020600020905b815481529060010190602001808311612afe57829003601f168201915b5050505050815260200160028201548152602001600382018054612b3e90614144565b80601f0160208091040260200160405190810160405280929190818152602001828054612b6a90614144565b8015612bb75780601f10612b8c57610100808354040283529160200191612bb7565b820191906000526020600020905b815481529060010190602001808311612b9a57829003601f168201915b505050505081526020016004820154815260200160058201805480602002602001604051908101604052809291908181526020018280548015612c1957602002820191906000526020600020905b815481526020019060010190808311612c05575b50505050508152602001600682015481525050905080600001518160200151826040015183606001518460800151955095509550955095505091939590929450565b60008060056000600260008673ffffffffffffffffffffffffffffffffffffffff1673ffffffffffffffffffffffffffffffffffffffff1681526020019081526020016000205481526020019081526020016000206000015414159050919050565b6000600b6000815480929190612cd2906146cd565b9190505550633b9ac9ff600b541115612d20576040517f08c379a0000000000000000000000000000000000000000000000000000000008152600401612d1790614d5d565b60405180910390fd5b600b54905090565b828054828255906000526020600020908101928215612d70579160200282015b82811115612d6f578251829081612d5f91906143b3565b5091602001919060010190612d48565b5b509050612d7d9190612ed3565b5090565b828054828255906000526020600020908101928215612dbd579160200282015b82811115612dbc578251825591602001919060010190612da1565b5b509050612dca9190612ef7565b5090565b828054828255906000526020600020908101928215612e16579160200282015b82811115612e15578251829081612e0591906143b3565b5091602001919060010190612dee565b5b509050612e239190612ed3565b5090565b828054828255906000526020600020908101928215612e6f579160200282015b82811115612e6e578251829081612e5e91906143b3565b5091602001919060010190612e47565b5b509050612e7c9190612ed3565b5090565b604051806101400160405280600081526020016000815260200160608152602001606081526020016060815260200160608152602001606081526020016060815260200160608152602001600081525090565b5b80821115612ef35760008181612eea9190612f14565b50600101612ed4565b5090565b5b80821115612f10576000816000905550600101612ef8565b5090565b508054612f2090614144565b6000825580601f10612f325750612f51565b601f016020900490600052602060002090810190612f509190612ef7565b5b50565b6000604051905090565b600080fd5b600080fd5b600073ffffffffffffffffffffffffffffffffffffffff82169050919050565b6000612f9382612f68565b9050919050565b612fa381612f88565b8114612fae57600080fd5b50565b600081359050612fc081612f9a565b92915050565b600060208284031215612fdc57612fdb612f5e565b5b6000612fea84828501612fb1565b91505092915050565b60008115159050919050565b61300881612ff3565b82525050565b60006020820190506130236000830184612fff565b92915050565b6000819050919050565b61303c81613029565b811461304757600080fd5b50565b60008135905061305981613033565b92915050565b600080fd5b6000601f19601f8301169050919050565b7f4e487b7100000000000000000000000000000000000000000000000000000000600052604160045260246000fd5b6130ad82613064565b810181811067ffffffffffffffff821117156130cc576130cb613075565b5b80604052505050565b60006130df612f54565b90506130eb82826130a4565b919050565b600067ffffffffffffffff82111561310b5761310a613075565b5b602082029050602081019050919050565b600080fd5b600080fd5b600067ffffffffffffffff82111561314157613140613075565b5b61314a82613064565b9050602081019050919050565b82818337600083830152505050565b600061317961317484613126565b6130d5565b90508281526020810184848401111561319557613194613121565b5b6131a0848285613157565b509392505050565b600082601f8301126131bd576131bc61305f565b5b81356131cd848260208601613166565b91505092915050565b60006131e96131e4846130f0565b6130d5565b9050808382526020820190506020840283018581111561320c5761320b61311c565b5b835b8181101561325357803567ffffffffffffffff8111156132315761323061305f565b5b80860161323e89826131a8565b8552602085019450505060208101905061320e565b5050509392505050565b600082601f8301126132725761327161305f565b5b81356132828482602086016131d6565b91505092915050565b600067ffffffffffffffff8211156132a6576132a5613075565b5b602082029050602081019050919050565b60006132ca6132c58461328b565b6130d5565b905080838252602082019050602084028301858111156132ed576132ec61311c565b5b835b818110156133165780613302888261304a565b8452602084019350506020810190506132ef565b5050509392505050565b600082601f8301126133355761333461305f565b5b81356133458482602086016132b7565b91505092915050565b600080600080600080600060e0888a03121561336d5761336c612f5e565b5b600061337b8a828b0161304a565b975050602088013567ffffffffffffffff81111561339c5761339b612f63565b5b6133a88a828b0161325d565b965050604088013567ffffffffffffffff8111156133c9576133c8612f63565b5b6133d58a828b0161325d565b955050606088013567ffffffffffffffff8111156133f6576133f5612f63565b5b6134028a828b01613320565b945050608088013567ffffffffffffffff81111561342357613422612f63565b5b61342f8a828b0161325d565b93505060a088013567ffffffffffffffff8111156134505761344f612f63565b5b61345c8a828b016131a8565b92505060c088013567ffffffffffffffff81111561347d5761347c612f63565b5b6134898a828b016131a8565b91505092959891949750929550565b6000602082840312156134ae576134ad612f5e565b5b60006134bc8482850161304a565b91505092915050565b60008060008060008060c087890312156134e2576134e1612f5e565b5b60006134f089828a0161304a565b965050602087013567ffffffffffffffff81111561351157613510612f63565b5b61351d89828a016131a8565b955050604087013567ffffffffffffffff81111561353e5761353d612f63565b5b61354a89828a016131a8565b945050606087013567ffffffffffffffff81111561356b5761356a612f63565b5b61357789828a016131a8565b935050608061358889828a0161304a565b92505060a087013567ffffffffffffffff8111156135a9576135a8612f63565b5b6135b589828a016131a8565b9150509295509295509295565b60008060008060008060008060006101208a8c0312156135e5576135e4612f5e565b5b60006135f38c828d0161304a565b99505060206136048c828d0161304a565b98505060408a013567ffffffffffffffff81111561362557613624612f63565b5b6136318c828d016131a8565b97505060608a013567ffffffffffffffff81111561365257613651612f63565b5b61365e8c828d0161325d565b96505060808a013567ffffffffffffffff81111561367f5761367e612f63565b5b61368b8c828d0161325d565b95505060a08a013567ffffffffffffffff8111156136ac576136ab612f63565b5b6136b88c828d01613320565b94505060c08a013567ffffffffffffffff8111156136d9576136d8612f63565b5b6136e58c828d0161325d565b93505060e08a013567ffffffffffffffff81111561370657613705612f63565b5b6137128c828d016131a8565b9250506101008a013567ffffffffffffffff81111561373457613733612f63565b5b6137408c828d016131a8565b9150509295985092959850929598565b61375981613029565b82525050565b60006020820190506137746000830184613750565b92915050565b600081519050919050565b600082825260208201905092915050565b60005b838110156137b4578082015181840152602081019050613799565b60008484015250505050565b60006137cb8261377a565b6137d58185613785565b93506137e5818560208601613796565b6137ee81613064565b840191505092915050565b600060c08201905061380e6000830189613750565b818103602083015261382081886137c0565b9050818103604083015261383481876137c0565b9050818103606083015261384881866137c0565b90506138576080830185613750565b81810360a083015261386981846137c0565b9050979650505050505050565b6000806040838503121561388d5761388c612f5e565b5b600083013567ffffffffffffffff8111156138ab576138aa612f63565b5b6138b78582860161325d565b925050602083013567ffffffffffffffff8111156138d8576138d7612f63565b5b6138e48582860161325d565b9150509250929050565b600081519050919050565b600082825260208201905092915050565b6000819050602082019050919050565b61392381613029565b82525050565b600082825260208201905092915050565b60006139458261377a565b61394f8185613929565b935061395f818560208601613796565b61396881613064565b840191505092915050565b600081519050919050565b600082825260208201905092915050565b6000819050602082019050919050565b60006139ab838361393a565b905092915050565b6000602082019050919050565b60006139cb82613973565b6139d5818561397e565b9350836020820285016139e78561398f565b8060005b85811015613a235784840389528151613a04858261399f565b9450613a0f836139b3565b925060208a019950506001810190506139eb565b50829750879550505050505092915050565b600081519050919050565b600082825260208201905092915050565b6000819050602082019050919050565b6000613a6d838361391a565b60208301905092915050565b6000602082019050919050565b6000613a9182613a35565b613a9b8185613a40565b9350613aa683613a51565b8060005b83811015613ad7578151613abe8882613a61565b9750613ac983613a79565b925050600181019050613aaa565b5085935050505092915050565b600061014083016000830151613afd600086018261391a565b506020830151613b10602086018261391a565b5060408301518482036040860152613b28828261393a565b91505060608301518482036060860152613b4282826139c0565b91505060808301518482036080860152613b5c82826139c0565b91505060a083015184820360a0860152613b768282613a86565b91505060c083015184820360c0860152613b9082826139c0565b91505060e083015184820360e0860152613baa828261393a565b915050610100830151848203610100860152613bc6828261393a565b915050610120830151613bdd61012086018261391a565b508091505092915050565b6000613bf48383613ae4565b905092915050565b6000602082019050919050565b6000613c14826138ee565b613c1e81856138f9565b935083602082028501613c308561390a565b8060005b85811015613c6c5784840389528151613c4d8582613be8565b9450613c5883613bfc565b925060208a01995050600181019050613c34565b50829750879550505050505092915050565b60006020820190508181036000830152613c988184613c09565b905092915050565b60008060408385031215613cb757613cb6612f5e565b5b6000613cc58582860161304a565b9250506020613cd68582860161304a565b9150509250929050565b60008060008060008060c08789031215613cfd57613cfc612f5e565b5b6000613d0b89828a0161304a565b965050602087013567ffffffffffffffff811115613d2c57613d2b612f63565b5b613d3889828a016131a8565b955050604087013567ffffffffffffffff811115613d5957613d58612f63565b5b613d6589828a016131a8565b9450506060613d7689828a0161304a565b935050608087013567ffffffffffffffff811115613d9757613d96612f63565b5b613da389828a016131a8565b92505060a0613db489828a0161304a565b9150509295509295509295565b600082825260208201905092915050565b6000613ddd82613973565b613de78185613dc1565b935083602082028501613df98561398f565b8060005b85811015613e355784840389528151613e16858261399f565b9450613e21836139b3565b925060208a01995050600181019050613dfd565b50829750879550505050505092915050565b600082825260208201905092915050565b6000613e6382613a35565b613e6d8185613e47565b9350613e7883613a51565b8060005b83811015613ea9578151613e908882613a61565b9750613e9b83613a79565b925050600181019050613e7c565b5085935050505092915050565b600061018082019050613ecc600083018f613750565b613ed9602083018e613750565b8181036040830152613eeb818d6137c0565b9050613efa606083018c613750565b8181036080830152613f0c818b6137c0565b905081810360a0830152613f20818a6137c0565b905081810360c0830152613f348189613dd2565b905081810360e0830152613f488188613dd2565b9050818103610100830152613f5d8187613e58565b9050818103610120830152613f728186613dd2565b9050818103610140830152613f8781856137c0565b9050818103610160830152613f9c81846137c0565b90509d9c50505050505050505050505050565b600060a0820190508181036000830152613fc981886137c0565b90508181036020830152613fdd81876137c0565b9050613fec6040830186613750565b8181036060830152613ffe81856137c0565b905061400d6080830184613750565b9695505050505050565b7f4f6e6c7920646f63746f72732063616e206d6f6469667920707265736372697060008201527f74696f6e73000000000000000000000000000000000000000000000000000000602082015250565b6000614073602583613785565b915061407e82614017565b604082019050919050565b600060208201905081810360008301526140a281614066565b9050919050565b7f54726561746d656e7420646f6573206e6f742065786973740000000000000000600082015250565b60006140df601883613785565b91506140ea826140a9565b602082019050919050565b6000602082019050818103600083015261410e816140d2565b9050919050565b7f4e487b7100000000000000000000000000000000000000000000000000000000600052602260045260246000fd5b6000600282049050600182168061415c57607f821691505b60208210810361416f5761416e614115565b5b50919050565b7f4e6577206d65646963696e657320696e7465726163742077697468206375727260008201527f656e74206d65646963696e657300000000000000000000000000000000000000602082015250565b60006141d1602d83613785565b91506141dc82614175565b604082019050919050565b60006020820190508181036000830152614200816141c4565b9050919050565b60008190508160005260206000209050919050565b60006020601f8301049050919050565b600082821b905092915050565b6000600883026142697fffffffffffffffffffffffffffffffffffffffffffffffffffffffffffffffff8261422c565b614273868361422c565b95508019841693508086168417925050509392505050565b6000819050919050565b60006142b06142ab6142a684613029565b61428b565b613029565b9050919050565b6000819050919050565b6142ca83614295565b6142de6142d6826142b7565b848454614239565b825550505050565b600090565b6142f36142e6565b6142fe8184846142c1565b505050565b5b81811015614322576143176000826142eb565b600181019050614304565b5050565b601f8211156143675761433881614207565b6143418461421c565b81016020851015614350578190505b61436461435c8561421c565b830182614303565b50505b505050565b600082821c905092915050565b600061438a6000198460080261436c565b1980831691505092915050565b60006143a38383614379565b9150826002028217905092915050565b6143bc8261377a565b67ffffffffffffffff8111156143d5576143d4613075565b5b6143df8254614144565b6143ea828285614326565b600060209050601f83116001811461441d576000841561440b578287015190505b6144158582614397565b86555061447d565b601f19841661442b86614207565b60005b828110156144535784890151825560018201915060208501945060208101905061442e565b86831015614470578489015161446c601f891682614379565b8355505b6001600288020188555050505b505050505050565b7f4163636f756e7420616c7265616479206578697374732121212055736520612060008201527f446966666572656e74204163636f756e74000000000000000000000000000000602082015250565b60006144e1603183613785565b91506144ec82614485565b604082019050919050565b60006020820190508181036000830152614510816144d4565b9050919050565b7f4f6e6c79206f6e6520646f63746f722063616e2072656769737465722070657260008201527f206163636f756e74206164647265737300000000000000000000000000000000602082015250565b6000614573603083613785565b915061457e82614517565b604082019050919050565b600060208201905081810360008301526145a281614566565b9050919050565b7f4e487b7100000000000000000000000000000000000000000000000000000000600052601160045260246000fd5b60006145e382613029565b91506145ee83613029565b9250828203905081811115614606576146056145a9565b5b92915050565b7f4e487b7100000000000000000000000000000000000000000000000000000000600052603260045260246000fd5b7f4d65646963696e6520696e746572616374696f6e2064657465637465642e205060008201527f6c65617365206368616e676520746865206d65646963696e652e000000000000602082015250565b6000614697603a83613785565b91506146a28261463b565b604082019050919050565b600060208201905081810360008301526146c68161468a565b9050919050565b60006146d882613029565b91507fffffffffffffffffffffffffffffffffffffffffffffffffffffffffffffffff820361470a576147096145a9565b5b600182019050919050565b7f4f6e6c7920646f63746f72732063616e2074726561742070617469656e74732e600082015250565b600061474b602083613785565b915061475682614715565b602082019050919050565b6000602082019050818103600083015261477a8161473e565b9050919050565b7f446f63746f7220646f6573206e6f742065786973740000000000000000000000600082015250565b60006147b7601583613785565b91506147c282614781565b602082019050919050565b600060208201905081810360008301526147e6816147aa565b9050919050565b7f4163636573732064656e69656400000000000000000000000000000000000000600082015250565b6000614823600d83613785565b915061482e826147ed565b602082019050919050565b6000602082019050818103600083015261485281614816565b9050919050565b600081905092915050565b7f416476696c000000000000000000000000000000000000000000000000000000600082015250565b600061489a600583614859565b91506148a582614864565b600582019050919050565b60006148bb8261488d565b9150819050919050565b7f4261637472696d00000000000000000000000000000000000000000000000000600082015250565b60006148fb600783614859565b9150614906826148c5565b600782019050919050565b600061491c826148ee565b9150819050919050565b7f50616e61646f6c00000000000000000000000000000000000000000000000000600082015250565b600061495c600783614859565b915061496782614926565b600782019050919050565b600061497d8261494f565b9150819050919050565b7f49627570726f66656e0000000000000000000000000000000000000000000000600082015250565b60006149bd600983614859565b91506149c882614987565b600982019050919050565b60006149de826149b0565b9150819050919050565b7f4173706972696e00000000000000000000000000000000000000000000000000600082015250565b6000614a1e600783614859565b9150614a29826149e8565b600782019050919050565b6000614a3f82614a11565b9150819050919050565b7f53696d766173746174696e000000000000000000000000000000000000000000600082015250565b6000614a7f600b83614859565b9150614a8a82614a49565b600b82019050919050565b6000614aa082614a72565b9150819050919050565b7f466c75636f6e617a6f6c65000000000000000000000000000000000000000000600082015250565b6000614ae0600b83614859565b9150614aeb82614aaa565b600b82019050919050565b6000614b0182614ad3565b9150819050919050565b6000614b168261377a565b614b208185614859565b9350614b30818560208601613796565b80840191505092915050565b6000614b488284614b0b565b915081905092915050565b60008154614b6081614144565b614b6a8186614859565b94506001821660008114614b855760018114614b9a57614bcd565b60ff1983168652811515820286019350614bcd565b614ba385614207565b60005b83811015614bc557815481890152600182019150602081019050614ba6565b838801955050505b50505092915050565b6000614be28284614b53565b915081905092915050565b7f496e746572616374696f6e2064657465637465642e20506c656173652063686160008201527f6e676520746865206d65646963696e652e000000000000000000000000000000602082015250565b6000614c49603183613785565b9150614c5482614bed565b604082019050919050565b60006020820190508181036000830152614c7881614c3c565b9050919050565b7f50617469656e7420646f6573206e6f7420657869737400000000000000000000600082015250565b6000614cb5601683613785565b9150614cc082614c7f565b602082019050919050565b60006020820190508181036000830152614ce481614ca8565b9050919050565b7f4d6178696d756d206e756d626572206f662074726561746d656e74732072656160008201527f6368656400000000000000000000000000000000000000000000000000000000602082015250565b6000614d47602483613785565b9150614d5282614ceb565b604082019050919050565b60006020820190508181036000830152614d7681614d3a565b905091905056fea264697066735822122083780eb3142940d93869714867f6e23028f6acbd90ced7ca49268f1fb537613f64736f6c63430008130033",
  "immutableReferences": {},
  "source": "// SPDX-License-Identifier: MIT\npragma solidity ^0.8.0;\npragma experimental ABIEncoderV2;\n\ncontract DMMS {\n    struct patient {\n        string name;\n        string addres;\n        uint phoneNo;\n        string bloodGroup;\n        uint emergencyContact;\n        uint[] treatmentId;\n        uint treatmentCount;\n    }\n    \n struct treatment {\n    uint patient_id;\n    uint doctor_id;\n    string diagnosis;\n    string[] medicines;\n    string[] medicineBrands;\n    uint[] dosages;\n    string[] medicineAdministrations;\n    string doctorNotes;\n    string med_duration;\n    uint timestamp;\n}\n    struct doctor {\n        uint doc_id;\n        string name;\n        string practice_type;\n        string area_of_expertize;\n        uint phone_no;\n        string clinicAddress;\n    }\n    \n    struct Prescription {\n        string[] medicines;\n        uint[] dosages;\n    }\n    \n    mapping (uint => uint) entitie;\n    mapping (uint => patient) p_info;\n    mapping (address => uint) addresstoId;\n    mapping (uint => address) IdtoAdress;\n    mapping (uint => treatment) tid;\n    mapping (uint => doctor) did;\n    mapping (address => bool) public addressToDoctor;\n    mapping (string => string[]) interactions;\n    mapping (uint => Prescription) patientPrescriptions;\n    mapping(uint => treatment) tidToTreatment;\n    mapping(uint => uint[]) patientTreatments;\n   \n    event TreatmentCompleted(uint treatmentId);\n\n    function addPatientInfo(uint _id, string memory _name, string memory _addres, uint _phoneNo, string memory _bloodGroup, uint _emergencyContact) public {\n        require(entitie[_id] == 0 && addresstoId[msg.sender] == 0, \"Account already exists!!! Use a Different Account\");\n        p_info[_id] = patient(_name, _addres, _phoneNo, _bloodGroup, _emergencyContact, new uint[](0), 0);\n        entitie[_id] = 1;\n        addresstoId[msg.sender] = _id;\n        IdtoAdress[_id] = msg.sender;\n    }\n\n    function getPatientInfo(uint id) public view returns (string memory, string memory, uint, string memory, uint) {\n        require(entitie[id] == 1 || entitie[id] == 2, \"Patient does not exist\");\n        patient memory p = p_info[id];\n        return (p.name, p.addres, p.phoneNo, p.bloodGroup, p.emergencyContact);\n    }\n\nuint private treatmentCounter = 0;\n\nfunction createTreatmentID() public returns (uint) {\n    treatmentCounter++;\n    require(treatmentCounter <= 999999999, \"Maximum number of treatments reached\");\n    return treatmentCounter;\n}\n\n\nfunction TreatPatient(uint patient_id, uint doctor_id, string memory diagnosis, string[] memory medicines, string[] memory medicineBrands, uint[] memory dosages, string[] memory medicineAdministrations, string memory doctorNotes, string memory med_duration) public returns (uint) {\n    uint val = addresstoId[msg.sender];\n    require(entitie[patient_id] == 1 || entitie[val] == 2);\n\n    // Check for medicine interactions if the patient has previous treatments\n    if (p_info[patient_id].treatmentCount > 0) {\n        uint lastTreatmentId = p_info[patient_id].treatmentId[p_info[patient_id].treatmentCount - 1];\n        treatment memory lastTreatment = tidToTreatment[lastTreatmentId];\n        require(!checkInteractions(lastTreatment.medicines, medicines), \"Medicine interaction detected. Please change the medicine.\");\n    }\n\n    uint _tid = createTreatmentID();\n    treatment memory newTreatment = treatment(patient_id, doctor_id, diagnosis, medicines, medicineBrands, dosages, medicineAdministrations, doctorNotes, med_duration, block.timestamp);\n    tidToTreatment[_tid] = newTreatment;\n    p_info[patient_id].treatmentId.push(_tid);\n    p_info[patient_id].treatmentCount++;\n    patientTreatments[patient_id].push(_tid);\n    require(isDoctor(msg.sender), \"Only doctors can treat patients.\");\n\n    emit TreatmentCompleted(_tid);\n    return _tid;\n}\nfunction getTreatmentDetails(uint _tid) public view returns (uint timestamp, uint p_id, string memory p_name, uint d_id, string memory d_name, string memory diagnosis, string[] memory medicines, string[] memory medicineBrands, uint[] memory dosages, string[] memory medicineAdministrations, string memory doctorNotes, string memory med_duration) {\n    treatment memory t = tidToTreatment[_tid];\n\n    p_id = t.patient_id;\n    d_id = t.doctor_id;\n    p_name = p_info[p_id].name;\n    d_name = did[d_id].name;\n    diagnosis = t.diagnosis;\n    medicines = t.medicines;\n    medicineBrands = t.medicineBrands;\n    dosages = t.dosages;\n    medicineAdministrations = t.medicineAdministrations;\n    doctorNotes = t.doctorNotes;\n    med_duration = t.med_duration;\n    timestamp = t.timestamp;\n}\n\nfunction getPatientTreatments(uint patient_id) public view returns (treatment[] memory) {\n    uint[] storage treatmentIds = patientTreatments[patient_id];\n    treatment[] memory treatments = new treatment[](treatmentIds.length);\n\n    for (uint i = 0; i < treatmentIds.length; i++) {\n        uint treatmentId = treatmentIds[i];\n\n        treatments[i] = tidToTreatment[treatmentId];\n    }\n\n    return treatments;\n}\n\n\n    function treatmentExists(uint patient_id, uint treatment_id) public view returns (bool) {\n        uint[] storage treatments = p_info[patient_id].treatmentId;\n        for (uint i = 0; i < treatments.length; i++) {\n            if (treatments[i] == treatment_id) {\n                return true;\n            }\n        }\n        return false;\n    }\n    function patientExists(uint patient_id) public view  returns (bool) {\n        return p_info[patient_id].treatmentCount > 0;\n    }\n\n    function isDoctor(address sender) public  view returns (bool) {\n        // Check if the sender's ID is in the `did` mapping\n        return did[addresstoId[sender]].doc_id != 0;\n    }\n\n    function addDoctor(uint doc_id, string memory name, string memory practice_type, string memory area_of_expertise, uint phone_no, string memory clinicAddress) public {\n        require(entitie[doc_id] == 0 || addresstoId[msg.sender] == 0, \"Account already exists!!! Use a Different Account\");\n        require(!addressToDoctor[msg.sender], \"Only one doctor can register per account address\");\n        did[doc_id] = doctor(doc_id, name, practice_type, area_of_expertise, phone_no, clinicAddress);\n        entitie[doc_id] = 2;\n        addresstoId[msg.sender] = doc_id;\n        IdtoAdress[doc_id] = msg.sender;\n        addressToDoctor[msg.sender] = true;\n    }\n\n    function getDoctorDetails(uint _d_id) public view returns (uint, string memory, string memory, string memory, uint, string memory) {\n        require(entitie[_d_id] == 2, \"Doctor does not exist\");\n        uint val = addresstoId[msg.sender];\n        require(entitie[val] == 2 || entitie[val] == 1, \"Access denied\");\n        doctor memory d = did[_d_id];\n        return (d.doc_id, d.name, d.practice_type, d.area_of_expertize, d.phone_no, d.clinicAddress);\n    }\n\nfunction modifyPrescription(uint treatment_id, string[] memory medicines, string[] memory medicineBrands, uint[] memory dosages, string[] memory medicineAdministrations, string memory duration, string memory doctorNotes) public {\n    require(isDoctor(msg.sender), \"Only doctors can modify prescriptions\");\n\n    treatment storage t = tidToTreatment[treatment_id];\n    require(t.patient_id != 0, \"Treatment does not exist\");\n    require(!checkInteractions(t.medicines, medicines), \"New medicines interact with current medicines\");\n\n    t.medicines = medicines;\n    t.medicineBrands = medicineBrands;\n    t.dosages = dosages;\n    t.medicineAdministrations = medicineAdministrations;\n    t.med_duration = duration;\n    t.doctorNotes = doctorNotes;\n}\n\n\n    function checkInteractions(string[] memory medicines, string[] memory newMedicines) public returns (bool) {\n        interactions[\"Advil\"] = [\"Warfarin\"];\n        interactions[\"Bactrim\"] = [\"Warfarin\"];\n        interactions[\"Panadol\"] = [\"Ibuprofen\", \"Aspirin\"];\n        interactions[\"Ibuprofen\"] = [\"Panadol\", \"Aspirin\"];\n        interactions[\"Aspirin\"] = [\"Panadol\", \"Ibuprofen\"];\n        interactions[\"Simvastatin\"] = [\"Fluconazole\"];\n        interactions[\"Fluconazole\"] = [\"Simvastatin\"];\n\n        for (uint i = 0; i < medicines.length; i++) {\n            string memory previousMedicine = medicines[i];\n\n            for (uint j = 0; j < newMedicines.length; j++) {\n                string memory newMedicine = newMedicines[j];\n\n                if (keccak256(abi.encodePacked(interactions[previousMedicine][j])) == keccak256(abi.encodePacked(newMedicine))) {\n                    revert(\"Interaction detected. Please change the medicine.\");\n                }\n            }\n        }\n        return false;\n    }\n    \n}\n",
  "sourcePath": "E:\\dmms\\contracts\\DMMS.sol",
  "compiler": {
    "name": "solc",
    "version": "0.8.19+commit.7dd6d404.Emscripten.clang"
  },
  "schemaVersion": "3.4.13",
  "updatedAt": "2023-05-30T04:14:54.069Z",
  "networkType": "ethereum",
  "devdoc": {
    "kind": "dev",
    "methods": {},
    "version": 1
  },
  "userdoc": {
    "kind": "user",
    "methods": {},
    "version": 1
  }
}